:100000000C94B9110C94D6110C94D6110C94D611F1
:100010000C94D6110C94D6110C94D6110C94D611C4
:100020000C94D6110C94D6110C94D3190C94F91D80
:100030000C94BD290C94D6110C94D6110C94D611A5
:100040000C94D6110C94D6110C94D6110C94D61194
:100050000C94D6110C94AC1A0C94D6110C94D611A5
:100060000C94D6110C94D6110C94D6110C94D61174
:100070000C94D6110C94D6110C94D6110C94D61164
:100080000C94D6110C94D6110C94D6110C94D61154
:100090000C94D6110C94D6110C94D6110C94D61144
:1000A0000C94D6110C94D6110C94D61105010902AA
:1000B000A10185020901A1000509190129081500FE
:1000C0002501950875018102050109300931158165
:1000D000257F95027508810609381581257F9501D0
:1000E00075088106050C0A38021581257F95017572
:1000F000088106C0C005010980A101850319012AF4
:10010000B700150126B700950175108100C0050CD8
:100110000901A101850419012AA002150126A002E6
:10012000950175108100C005010906A1018506052C
:100130000719E029E71500250195087501810205D9
:1001400007190029EF1500250195F07501810205B9
:10015000081901290595057501910295017503910D
:1001600001C00660FF0961A1010962150026FF00B8
:100170009520750881020963150026FF00952075FA
:10018000089102C005010906A101050719E029E748
:1001900015002501950875018102950175088101F9
:1001A0000507190029FF150026FF0095067508812F
:1001B000000508190129059505750191029501753C
:1001C000039101C0000000000000000000000000DA
:1001D000000000000000000000000000000000001F
:1001E00000000000000000007E0F00D4FFFFFFC7EA
:1001F0000000007800000000000000002A2B28000A
:1002000000000000000000000000000000000029C5
:10021000000000002C1E3420212224342627252E05
:10022000362D3738271E1F2021222324252633333D
:10023000362E37381F0405060708090A0B0C0D0E69
:100240000F101112131415161718191A1B1C1D2F35
:100250003130232D350405060708090A0B0C0D0E55
:100260000F101112131415161718191A1B1C1D2F15
:100270003130354C00DA1281FFD9F1DB20A4A62EF3
:10028000AF00A0C000A1C800AED580A83FD30040F9
:100290008D1420000000000000000000000000009D
:1002A000000000000000000000000000000000004E
:1002B000000000000000000000000000000080605E
:1002C000B81C5E4963431072F1E5E4F6F6F7F7F700
:1002D000F7F7F6F6F6F4F979190031383727272FB2
:1002E0002F0E181020000000000000000000000089
:1002F00000000000000000000000000000000000FE
:1003000000000000000000000000000000000000ED
:1003100000000000000000000000000000000000DD
:1003200000000000000000000000000000000000CD
:1003300000000000000000000000000000000000BD
:10034000000000000000000000030F1F3FFFFFFF40
:10035000FFFFFF3F1F07010000000000000000003A
:10036000000000000000000000000000000000008D
:10037000000000000000000000000000000000007D
:10038000000000000000000000000000000000006D
:10039000000000000000000000000000000000005D
:1003A000000000000000000000000000000000004D
:1003B000000000000000000000000000000000003D
:1003C0000000000000000000000000000000010725
:1003D0000F0300000000000000000000000000000B
:1003E000000000000000000000000000000000000D
:1003F00000000000000000000000000000000000FD
:1004000000000000000000000000000000000000EC
:1004100000000000000000000000000000000000DC
:1006B00000000000000000000000008080808080BA
:1006C0008080808080C0C0C0C0C0D0CCEF6F8F0061
:1006D0000FEFEFEFEEE8E0E0E0E0E0E0F0F0F0F068
:1006E000F0F07010000000000000000000000000AA
:1006F00000000000000000000000000000000000FA
:1007000000000000000000000000000000000000E9
:1007100000000000000000000000000000000000D9
:1007200000000000000000000000000000000000C9
:10073000000000000000000000000001030F1F7F08
:10074000FFFFFFFFFFFFFFFFFF3F9FE7F8FE8C204B
:10075000FEFCFBE3CF3F7FFFFFFFFFFFFFFF3F0FED
:100760000301000000000000000000000000000085
:100770000000000000000000000000000000000079
:100780000000000000000000000000000000000069
:100790000000000000000000000000000000000059
:1007A0000000000000000000000000000000000049
:1007B0000000000000000000000000000000000039
:1007C00080C1E79F3F3F0F23185F4F6F67777873B4
:1007D000737767676F4F9E9993071F87737C7EFCC3
:1007E000F0E08000000000000000000000000000B9
:1007F00000000000000000000000000000000000F9
:1008000000000000000000000000000000000000E8
:1008100000000000000000000000000000000000D8
:1008200000000000000000000000000000000000C8
:1008300000000000000000000000000000000806AA
:100840000B010504060401070F3EFEFFFFFFFFFF3B
:10085000FFFFFFFFFF7F1F070100030303020202E8
:100860000200010102000000000000000000000082
:100870000000000000000000000000000000000078
:100880000000000000000000000000000000000068
:100890000000000000000000000000000000000058
:1008A0000000000000000000000000000000000048
:1008B0000000000000000000000000000000000038
:1008C000000000000000000000000001030F1F7F77
:1008D000FF3F0F03010000000000000000000000C7
:1008E0000000000000000000000000000000000008
:1008F00000000000000000000000000000000000F8
:1009000000000000000000000000000000000000E7
:1009100000000000000000000000000000000000D7
:1009200000000000000000000000000000000000C7
:1009300000000000000000000000000000000000B7
:1009400000000000000000000000000000000000A7
:100950000000000000000000000000000000000097
:100960000000000000000000000000000000000087
:100970000000000000000000000000000000000077
:100980000000000000000000000000000000000067
:100990000000000000000000000000000000000057
:1009A0000000000000000000000000000000000047
:1009B0000000000000000000000000000000000037
:1009C0000000000000000000000000000000000027
:1009D0000000000000000000000000000000000017
:1009E0000000000000000000000000000000000007
:1009F00000000000000000000000000000000000F7
:100A000000000000000000000000000000000000E6
:100A100000000000000000000000000000000000D6
:100A200000000000000000000000000000000000C6
:100A300000000000000000000000000000000000B6
:100A400000000000000000000000000000000000A6
:100A50000000000000000000000000000000000096
:100A60000000000000000000000000000000000086
:100A70000000000000000000000000000000000076
:100A80000000000000000000000000000000000066
:100A90000000000000000000000000000000000056
:100AA0000000000000000000000000000000000046
:100AB0000000000101030000000000000000000031
:100AC0000000000000000000000000000000000026
:100AD0000000000000000000000000000000000016
:100AE0000000000000000000000000000000000006
:100AF000000000000000FEFFFFFEFCFC7878B0B0B4
:100B000008188CA0787C00000000000000000000A5
:100B100000000000000000000000000000000000D5
:100B200000000000000000000000000000000000C5
:100B300000000000000000000000000000000000B5
:100B400000000000000000000000000000000000A5
:100B50000000000000000000000000000000000095
:100B60000000000000000000000000000000000085
:100B7000000404141650E3E3D5D5AC6EEE937CFE6E
:100B8000FF00FFFFFFFF7E7E3C38381010000000A2
:100B90000000000000000000000000000000000055
:100BA0000000000000000000000000000000000045
:100BB0000000000000000000000000000000000035
:100BC0000000000000000000000000000000000025
:100BD0000000000000000000000000000000000015
:100BE0000000000000000000000000000000000005
:100BF0000000000000FF7F7F3F3F1F1F0E0E0D14FF
:100C00001030493DFF00000000000000000000001F
:100C100000000000000000000000000000000000D4
:100C200000000000000000000000000000000000C4
:100C300000000000000000000000000000000000B4
:100C4000000000000000000000000000C0F0FC00F8
:100C5000FEFCF0C08000000000000000000000006A
:100C60000000000000000000000000000000000084
:100C70000000000000000000000000000000000074
:100C80000000000000000000000000000000000064
:100C90000000000000000000000000000000000054
:100CA0000000000000000000000000000000000044
:100CB000000000000000000000000060E0E0E0E054
:100CC000E0E0E0E0E0F0F0F0F0F0F4F33B9B230034
:100CD000833BFBFBFBFAF8F8F8F8F8F8FCFCFCFCAB
:100CE000FC7C1C040000000000000000000000006C
:100CF00000000000000000000000000000000000F4
:100D000000000000000000000000000000000000E3
:100D100000000000000000000000000000000000D3
:100D200000000000000000000000000000000000C3
:100D30000000000000000000000000000003071F8A
:100D40003F7FFFFFFFFFFFFF3FCFE7F9FEFF23C815
:100D5000FFFFFEF8F3CF9F7FFFFFFFFFFF3F8F03F3
:100D60000000000000000000000000000000000083
:100D70000000000000000000000000000000000073
:100D80000000000000000000000000000000000063
:100D90000000000000000000000000000000000053
:100DA0000000000000000000000000000000000043
:100DB00000000000000000000000000000000080B3
:100DC000E07079278F0F43C8C69793DBD9DDDEDC4F
:100DD000DCDDD9D9DBD3E7E66401C7E1DC9F9FBF47
:100DE000BC386040800000000000000000000000EF
:100DF00000000000000000000000000000000000F3
:100E000000000000000000000000000000000000E2
:100E100000000000000000000000000000000000D2
:100E200000000000000000000000000000000000C2
:100E300000000000000000000000000000000201AF
:100E40000200010101010001030F3F7FFFFFFFFFCF
:100E5000FFFFFFFF7F1F07010000000000000000F0
:100E60000000000000000000000000000000000082
:100E70000000000000000000000000000000000072
:100E80000000000000000000000000000000000062
:100E90000000000000000000000000000000000052
:100EA0000000000000000000000000000000000042
:100EB0000000000000000000000000000000000032
:100EC0000000000000000000000000000000000022
:100ED0000000000000000000000000000000000012
:100EE0000000000000000000000000000000000002
:100EF00000000000000000000000000000000000F2
:100F000000000000000000000000000000000000E1
:100F100000000000000000000000000000000000D1
:100F200000000000000000000000000000000000C1
:100F300000000000000000000000000000000000B1
:100F400000000000000000000000000000000000A1
:100F50000000000000000000000000000000000091
:100F60000000000000000000000000000000000081
:100F70000000000000000000000000000000000071
:100F80000000000000000000000000000000000061
:100F90000000000000000000000000000000000051
:100FA0000000000000000000000080C0C0E0E00D74
:100FB000C60CD8FCBC7EFE40800000000000000093
:100FC0000000000000000000000000000000000021
:100FD0000000000000000000000000000000000011
:100FE0000000000000000000000000000000000001
:100FF00000000000000000000000000000000000F1
:1010000000000000000000000000000000000000E0
:1010100000000000000000000000000000000000D0
:1010200000000000000000000000000101031F009C
:1010300013143A7A7DFC0402020100000000000053
:1010400000000000000000000000000000000000A0
:101050000000000000000000000000000000000090
:101060000000000000000000000000000000000080
:10107000000000000000A0C0C080000000000000D0
:101080000000000000000000000000000000000060
:101090000000000000000000000000000000000050
:1010A0000000000000000000000000000000000040
:1010B0000000000000000000000000000000000030
:1010C0000000000000000000000000000000000020
:1010D0000000000000000000000000000000000010
:1010E0000000000000000000000000000000000000
:1010F000000000008000FFFF7F7F3FBF9EDE2CAC22
:10110000C206E3E8DEDF808000000000000000008F
:1011100000000000000000000000000000000000CF
:1011200000000000000000000000000000000000BF
:1011300000000000000000000000000000000000AF
:10114000000000000000000000000000000000009F
:10115000000000000000000000000000000000008F
:10116000000000000000000000000000000000007F
:101170000001010505D4F8F8F5F5EBDBBBA45F3FF2
:101180003F007F7FFF3F1F1F0F0E0E040400000073
:10119000000000000000000000000000000000004F
:1011A000000000000000000000000000000000003F
:1011B000000000000000000000000000000000002F
:1011C000000000000000000000000000000000001F
:1011D000800000000000000000000000000000008F
:1011E00000000000000000000000000000000000FF
:1011F00000000000003F1F1F0F0F07070303030538
:10120000040C120F3F00000000000000000000006E
:1012100000000000000000000000000000000000CE
:1012200000000000000000000000000000000000BE
:1012300000000000000000000000000000000000AE
:101240000000000000000000000000C0F0FCFF00F3
:10125000FFFFFCF0E0800000000000000000000044
:10126000000000000000000000000000000000007E
:10127000000000000000000000000000000000006E
:10128000000000000000000000000000000000005E
:10129000000000000000000000000000000000004E
:1012A000000000000000000000000000000000003E
:1012B000000000000000000000000000000000002E
:1012C00000000000007AE4DC38F8F8703090C0E0EC
:1012D000F0F0F8FCFEFFFFFFFFF800000000000048
:1012E00000000000000000000000000000000000FE
:1012F00000000000000000000000000000000000EE
:1013000000000000000000000000000000000000DD
:1013100000000000000000000000000000000000CD
:1013200000000000000000000000000000000000BD
:1013300000000000000000000000000000000000AD
:10134000000000000080CFE7F3F80070CB9B77F738
:10135000E7E7EFEFCFDF9F9FBF3F3C007C3C3CB80F
:10136000985810000000000000000000000000007D
:10137000000000000000000000000000000000006D
:10138000000000000000000000000000000000005D
:10139000000000000000000000000000000000004D
:1013A000000000000000000000000000000000003D
:1013B000000000000000000000000000004040703D
:1013C000F8FCFEFEFFFFFFFFFFFFFFE01FFF7F1C9B
:1013D000C3F7737B198BC0E1F0F8F8FC80030101BF
:1013E00000000000000000000000000000000000FD
:1013F00000000000000000000000000000000000ED
:1014000000000000000000000000000000000000DC
:1014100000000000000000000000000000000000CC
:1014200000000000000000000000000000000000BC
:1014300000000000000000000000000000000000AC
:1014400000000001010103030717F7670883401834
:101450001C3E3E3E3F7FFFFFFFFFFFFFFFC000003F
:10146000000000000000000000000000000000007C
:10147000000000000000000000000000000000006C
:10148000000000000000000000000000000000005C
:10149000000000000000000000000000000000004C
:1014A000000000000000000000000000000000003C
:1014B000000000000000000000000000000000002C
:1014C0000000000000000000000003000000000019
:1014D0000000000000000000000001010103000006
:1014E00000000000000000000000000000000000FC
:1014F00000000000000000000000000000000000EC
:1015000000000000000000000000000000000000DB
:1015100000000000000000000000000000000000CB
:10152000000000000000000000000000000000407B
:10153000800000000080800000000000000000002B
:10154000000000000000000000000000000000009B
:10155000000000000000000000000000000000008B
:10156000000000000000000000000000000000007B
:10157000000000000000000000000000000000006B
:10158000000000000000000000000000000000005B
:10159000000000000000000000000000000000004B
:1015A00000000000000000000000207070F8F80249
:1015B000F000B6BF4F1F3F90A040000000000000A9
:1015C000000000000000000000000000000000001B
:1015D000000000000000000000000000000000000B
:1015E00000000000000000000000000000000000FB
:1015F00000000000000000000000000000000000EB
:1016000000000000000000000000000000000000DA
:1016100000000000000000000000000000000000CA
:1016200000000000000000000000000000000700B3
:1016300004050E1E1F3F0000000000000000000017
:10164000000000000000000000000000000000009A
:10165000000000000000000000000000000000008A
:10166000000000000000000000000000000000007A
:10167000000000000000E8F0E0E0C0C08080000052
:101680008080C00080C0000000000000000000005A
:10169000000000000000000000000000000000004A
:1016A000000000000000000000000000000000003A
:1016B000000000000000000000000000000000002A
:1016C000000000000000000000000000000000001A
:1016D000000000000000000000000000000000000A
:1016E00000000000000000000000000000000000FA
:1016F00000000000000000000000000000000000EA
:1017000000000000000000000000000000000000D9
:1017100000000000000000000000000000000000C9
:1017200000000000000000000000000000000000B9
:1017300000000000000000000000000000000000A9
:101740000000000000000000000000000000000099
:101750000000000000000000000000000000000089
:101760000000000000000000000000000000000079
:101770000000000000000000000000000000000069
:101780000000000000000000000000000000000059
:101790000000000000000000000000000000000049
:1017A0000000000000000000000000000000000039
:1017B0000000000000000000000000000000000029
:1017C0000000000000D01060E0C0C0C080800000B9
:1017D00080C0E0E0F0F8FCFCFEF400000000000037
:1017E00000000000000000000000000000000000F9
:1017F00000000000000000000000000000000000E9
:1018000000000000000000000000000000000000D8
:1018100000000000000000000000000000000000C8
:1018200000000000000000000000000000000000B8
:1018300000000000000000000000000000000000A8
:1018400000000000000F3EBCD903070B599CBE3FAF
:101850007F3FFF7FFFFFFFFFFFFFE000C0C08080F2
:1018600080000000000000000000000000000000F8
:101870000000000000000000000000000000000068
:101880000000000000000000000000000000000058
:101890000000000000000000000000000000000048
:1018A0000000000000000000000000000000000038
:1018B0000000000000000000000000000080C0E008
:1018C000E0F0F8FCFEFEFFFFFFFD003EFCF9C39FC9
:1018D0003F7E3EBC9C9C9D594BA3C7400777773306
:1018E000130B0B04000000000000000000000000CB
:1018F00000000000000000000000000000000000E8
:1019000000000000000000000000000000000000D7
:1019100000000000000000000000000000000000C7
:1019200000000000000000000000000000000000B7
:101930000000000000000000000000000103030799
:1019400007070F0F1F1F3F3F3F7F7C017F0FB39C97
:10195000CFEFF7F3FBFDFEFEFFFFFFFF00000000EF
:101960000000000000000000000000000000000077
:101970000000000000000000000000000000000067
:101980000000000000000000000000000000000057
:101990000000000000000000000000000000000047
:1019A0000000000000000000000000000000000037
:1019B0000000000000000000000000000000000027
:1019C00000000000000000001F1E26180C05010189
:1019D000030307070F0F0F1F1F3F3F3F7F0000004C
:1019E00000000000000000000000000000000000F7
:1019F00000000000000000000000000000000000E7
:101A000000000000000000000000000000000000D6
:101A100000000000000000000000000000000000C6
:101D50000000000000000000800000000000000003
:101D60000000000000000000000000000000000073
:101D70000000000000000000000000000000000063
:101D80000000000000000000000000000000000053
:101D90000000000000000000000000000000000043
:101DA0000000000000000000000000000000000033
:101DB0000000000000000000000000000000000023
:101DC0000000000000F4841878F0F0F0602080C07B
:101DD000E0F0F8F8FCFEFFFFFFFD0000000000004F
:101DE00000000000000000000000000000000000F3
:101DF00000000000000000000000000000000000E3
:101E000000000000000000000000000000000000D2
:101E100000000000000000000000000000000000C2
:101E200000000000000000000000000000000000B2
:101E300000000000000000000000000000000000A2
:101E4000000000008083CFEFF64001821667EFCFDD
:101E5000DF8FBF1F3F3F7F7FFFFFF800F0F0E0E024
:101E6000E0C0C00000000000000000000000000012
:101E70000000000000000000000000000000000062
:101E80000000000000000000000000000000000052
:101E90000000000000000000000000000000000042
:101EA0000000000000000000000000000000000032
:102290000000000000AF00AEAA002900A900000065
:1022A0000F001200190008000100007C010001006D
:1022B0000100010001000100010001000100010016
:1022C0000100010001000100010001000100010006
:1022D000010001000100010009025B00030100A0F0
:1022E000FA090400000103010100092111010001A4
:1022F00022400007058103080001090401000203D0
:1023000000000009211101000122220007058203BB
:102310002000010705030320000109040200010356
:1023200000000009211101000122B6000705840305
:1023300020000112010002000000084F1B0692015C
:102340000001020001160353006900730068007465
:10235000006100720070006100640000000E036BF9
:10236000006100740073007500750000000403092B
:10237000040011241FBECFEFDAE0DEBFCDBF11E0B5
:10238000A0E0B1E0EAE4F8E602C005900D92A83AB8
:10239000B107D9F727E0A8EAB1E001C01D92AA3140
:1023A000B207E1F70E94E4290C94D1330C940000A9
:1023B000E8EDF0E080818E7F80831092E200109241
:1023C000DA001092E100A0EEB0E08C9181608C9375
:1023D00080818F77808319BCA7EDB0E08C918E7FD0
:1023E0008C9380818F7E80831092E40608952091E3
:1023F000E4003091E50095E6A9012091EC00822FE0
:10240000817020FF06C08091E80080FF06C080E058
:1024100008952091E80022FD1AC0809109078823C1
:1024200089F0853089F08091EB0085FD0FC0209107
:10243000E4003091E50042175307F9F29150E1F6BC
:1024400084E0089582E0089583E0089581E008958E
:1024500080910B0787FF13C08091E80082FF06C0C0
:102460008091E8008B778093E80004C08091090791
:102470008111F2CF0895809109078823D9F38091C3
:10248000E80080FFF8CF8091E8008E77ECCF982F9E
:102490009093E900242F762F50E0891731F0709146
:1024A000EC002091ED005091F00021FD07C09F5FEE
:1024B000973071F78093E90081E008953091EB0047
:1024C0003E7F3093EB003091ED003D7F3093ED0087
:1024D0003091EB0031603093EB007093EC0020936F
:1024E000ED005093F0002091EE0027FDE0CF80E05A
:1024F0000895B0E0A0E0EFE7F2E10C94A631C8ED5A
:10250000D0E088818F7E8883E7EDF0E08081816074
:10251000808384E082BF81E08093E40688818E7F9F
:10252000888302EE10E0F80110821092DA0081EE4A
:10253000C82ED12CF601108288818F7788838881FC
:102540008068888388818F7D888319BC10920907F1
:1025500010920A07109208071092070790EEE92ED2
:10256000F12CF70180818B7F808388818160888353
:1025700042E060E080E00E944712F60180818E7F99
:102580008083F8018081816080838081886080837E
:10259000F70180818E7F8083888180618883CDB7B9
:1025A000DEB7E8E00C94C231FC01809111079091F4
:1025B000120786179707A0F06115710529F490910D
:1025C000E8009E779093E80090E06115710551F462
:1025D000911108C08091E80082FF34C080E0089526
:1025E000BC01F2CF809109078823C1F18530C1F188
:1025F0008091E80083FD30C08091E80082FDEACF41
:102600008091E80080FFE1CF8091F3002091F200FB
:10261000382F6115710519F02830310558F091E017
:102620002830310509F090E02091E8002E772093C2
:10263000E800CBCF81918093F100615071092F5F49
:102640003F4FE7CF80910907882341F0853041F063
:102650008091E80083FFBECF81E0089582E0089575
:1026600083E008958091E606089587E797E79093C1
:1026700001088093000888E19AE00FB6F894A895C5
:10268000809360000FBE90936000FFCF2FB7F89447
:102690006091DE067091DF068091E0069091E10680
:1026A0002FBF0895209117012223C9F02091E2063F
:1026B00027FF15C0E62FE695E695E695EE31D8F4AE
:1026C000E80FF92FF11D677021E030E001C0220F03
:1026D0006A95EAF720958281282322830895FC01D8
:1026E000329608962191621303C0DF0111971C9264
:1026F000E817F907B9F70895209117012223C1F0CF
:102700002091E20627FF14C0E62FE695E695E695B0
:10271000EE31F8F4E80FF92FF11D677021E030E099
:1027200001C0220F6A95EAF78281822B8283089585
:10273000FC0132962FEF30E04191641751F02F3FAA
:1027400019F4411101C0232F3F5F3630A9F72F3F05
:1027500009F40895820F911D27FD9A95FC0162836B
:102760000895A3E0B0E0E7EBF3E10C94AC312091E5
:10277000DB063091DC0628173907A1F09093DC06C0
:102780008093DB06E091D906F091DA06309751F09C
:1027900024E029839B838A830680F781E02DCE0184
:1027A000019609952396E2E00C94C831A3E0B0E0CD
:1027B000ECEDF3E10C94AC312091D7063091D806C2
:1027C00028173907A1F09093D8068093D706E09197
:1027D000D906F091DA06309751F023E029839B83E4
:1027E0008A830680F781E02DCE0101960995239614
:1027F000E2E00C94C831E091D906F091DA06309706
:1028000029F00190F081E02D0995089580E0089568
:1028100080E008959091E20692FF06C0282F28716B
:102820002830F9F4877F846093FF06C0282F287131
:102830002831F1F4877E84612091E30620FF06C0F1
:10284000382F38713830D9F4877F816021FF06C076
:10285000282F28712831D1F4877E816194FD877EED
:102860000895282F24712430F9F68B7F8860DCCFFF
:10287000282F2471243101F78B7E8861DDCF382F1A
:102880003171313019F78E7F8860E0CF282F2171A8
:10289000213121F78E7E8861E1CF82389105B9F12F
:1028A000B0F48133910509F47DC048F48932910573
:1028B00009F46DC08A32910509F47BC0089585330F
:1028C000910509F45FC08933910509F10895833EAC
:1028D0009105D9F138F4803E910529F1823E9105A8
:1028E00079F10895863E9105D9F1873E910509F465
:1028F0003EC0843E910541F52091E30621FF24C0AE
:102900008091E20684FD19C087EE90E00895209141
:10291000E206237009F05AC02091E30623FF14C099
:1029200089E290E008952091E20620FD38C03091C0
:10293000E30630FF09C024FF43C090E080E0089523
:102940002091E20622FDF7CF08952091E20622FDB4
:102950003AC03091E30630FD39C024FFF5CFEDCF0A
:102960002091E20623FFF0CF24FDE7CFCDCF2091C9
:10297000E20623FD2EC03091E30631FFEECF84EE58
:1029800090E008952091E20625FFDECFC9CF209187
:10299000E20625FD21C02091E30623FFD5CF89E380
:1029A00090E0D2CF2091E20626FFCECF8AE290E0DF
:1029B00008952091E20626FFC7CF81E390E00895B5
:1029C00083EE90E0089582EE90E0089580EE90E02E
:1029D000089586EE90E0089585E390E008951F93B2
:1029E000CF93DF930E944D14EC01C11580E5D80709
:1029F000F0F5C11580E4D80708F09CC0C03ED105B1
:102A000020F5CD3CD10508F082C0C83AD10578F454
:102A1000C53AD10508F073C0C130D10519F120972E
:102A200009F1C430D105F0F4D0E0C0E01BC0C33CD4
:102A3000D105D0F7C85AD0E0CC0FDD1FC55DDE4F01
:102A40000990D881C02DD4640DC0C11580E2D8078B
:102A500008F0D1C0C11581E0D80708F05AC0C83EBF
:102A6000D10510F7CE01DF91CF911F910895C036A7
:102A700082E5D80718F5C03482E5D80708F06BC0A6
:102A8000C03282E5D80708F05FC0C11582E5D807DB
:102A900008F497C02C2F2695269580E2289F900158
:102AA00011248C2F8370C1E0D0E002C0CC0FDD1F59
:102AB0008A95E2F7C22BD32BDD68D4CFC03A82E5EA
:102AC000D80760F4C03882E5D80708F459C0CF7140
:102AD000D0E0DC2FCC27C46FD06AC4CFC03C82E5E5
:102AE000D80708F462C0C03E82E5D80708F09CCF42
:102AF000DC2FCC27CC27DF71C06FD06AB3CFC55A8B
:102B0000D0E0C85DDE4FC881D0E0D064ABCFD065E7
:102B1000A9CF8D2F0E940A14182FCE0199270E9449
:102B20004D14C12FD0E0DC2FCC27CC27DF71C82B70
:102B3000D92B98CFCE0199270E944D14CC27DF7056
:102B4000C82BD92BD06A8ECFCF71D0E0DC2FCC2709
:102B5000C16FD06A87CF2C2F26952695277080E2EB
:102B6000289F900111248C2F8370C1E0D0E002C017
:102B7000CC0FDD1F8A95E2F7C22BD32BDC6872CF16
:102B80002C2F26952695277080E2289F90011124EE
:102B90008C2F8370C1E0D0E002C0CC0FDD1F8A957E
:102BA000E2F7C22BD32BDA685DCF8C2F8F710E9496
:102BB0000A14C82FD0E0DC2FCC27CC27DF71D062DD
:102BC00051CF8C2F8F710E940A1455E0D695C7956E
:102BD0005A95E1F7CF70D0E0DC2FCC27282F30E0DA
:102BE00084FF05C044E0220F331F4A95E1F7C22B52
:102BF000D32BD06937CF8D2F8F710E940A14182FD5
:102C0000CE0199270E944D14C12FD0E0DC2FCC2794
:102C1000CC27DF71C82BD92BD2CF8091290281110B
:102C200010922902089580959091280298239093FC
:102C300028020895209105029091D40156E02913AD
:102C400002C080E0089530E0529FF001539FF00DE4
:102C50001124EB52FE4F7181761306C070817813F8
:102C600003C07281741304C02F5F3F4F2770E7CFFA
:102C700081E00895809105029091D401981301C0DC
:102C800008958F5F8770FACF923018F5843008F579
:102C900024E0929FB0011124680F711DEBECF1E06C
:102CA00050E040E080E0219130E0062E02C03695F1
:102CB00027950A94E2F721703327042E01C0220FD2
:102CC0000A94EAF7822B4F5F5F4F4330510559F763
:102CD000089580E00895923040F5843030F544E066
:102CE000949F90011124820F932F911D21E001C028
:102CF000220F8A95EAF7EBECF1E050E040E070E05B
:102D00003191DF011197CB01042E02C09695879572
:102D10000A94E2F7817081958327822383278C931D
:102D20004F5F5F4F4330510559F708958093760206
:102D300008959091760221E030E0F90101C0EE0F94
:102D40008A95EAF7D90102C0AA0FBB1F6A95E2F77C
:102D5000EA2B01C0220F4A95EAF7892F8E23E81348
:102D600005C0292B822F0E949616089520952923AD
:102D7000F9CF21E030E001C0220F8A95EAF72095D3
:102D80008091760282230E94961608959091060201
:102D90008095892380930602282F277091F4282F8D
:102DA000082E000C330B9217130659F09091E3068E
:102DB00092FF07C08595859585950E94B91610925A
:102DC0000602089521E030E001C0220F8A95EAF75B
:102DD00080917602822B0E94961608958093340289
:102DE0000895CF92DF92EF92FF926B017C0154E045
:102DF000F694E794D794C7945A95D1F720E0C1147C
:102E0000D104E104F10419F0C701B60124E06B011B
:102E10007C0142E0F694E794D794C7944A95D1F7A1
:102E2000C114D104E104F10419F02E5FC701B60109
:102E30009695879577956795672B682B692B09F091
:102E40002F5F822FFF90EF90DF90CF900895B0E03A
:102E5000A0E0EDE2F7E10C94A6316C017B0164E6A1
:102E600070E088E70E94A230EC0197FD12C010E0EC
:102E700000E0F601E00FF11F849164E670E00E942B
:102E80000E31EC01892B29F40F5F1F4F0E151F0522
:102E900081F70E948431CE01CDB7DEB7E8E00C9413
:102EA000C2318091D5069091D606911103C091E070
:102EB00089270895882369F062E070E086E992E24C
:102EC0000E942717892B19F08091D506089510923A
:102ED000D5068091D506EBCFCF93C091D5068091D2
:102EE000D6068823D1F00E944613605A75418F4F51
:102EF0009F4F6093D1067093D2068093D306909330
:102F0000D406C11108C062E070E084E992E20E9438
:102F10002717892B29F0C091D5068C2FCF910895C2
:102F200081E08093D506F7CF0F931F93CF93DF9364
:102F30008B01EA0190910907943061F58093E900D3
:102F40008FEF9091E800815095FD06C095ED9A9520
:102F5000F1F700008111F5CF8091E80085FF1AC0DC
:102F60000E94F711811111C08091E80085FD06C013
:102F70008091E8008E778093E800F2CFF80181918C
:102F80008F018093F100219779F78091E8008E7787
:102F90008093E800DF91CF911F910F91089543E056
:102FA00050E0BC0184E00E949417089546E050E090
:102FB000BC0184E00E9494170895CF93DF93EC0145
:102FC00080911701811111C048E050E0BE0181E0FD
:102FD0000E94941780E2FE01A7EEB6E001900D92E8
:102FE0008A95E1F7DF91CF9108958091E20687FFFE
:102FF00005C040E284E050E0BE01EACF48E081E055
:10300000FACFCF93DF93C6E6D0E060E0CE010E9416
:103010009D332196C11584E0D807B9F7DF91CF9190
:1030200008951F93CF93DF93122F8430E8F462301A
:10303000D8F44430C8F428E0629FE001112450E045
:10304000440F551FC40FD51F20E1829FC0011124DA
:10305000C80FD91F632FCE0186960E949D33612F22
:10306000CE0187960E949D33DF91CF911F910895E5
:10307000AF92BF92CF92DF92EF92FF921F93CF93C6
:10308000DF9388E9C82E82E2D82EC0E0760110E0F6
:1030900014C0F501259134914D2F612F8C2F0E9482
:1030A000111882E0A80EB11CDF5FD43091F788E0E0
:1030B000E80EF11C113021F011E05701D0E0E9CF0A
:1030C000CF5F80E1C80ED11CC43001F7DF91CF91F2
:1030D0001F91FF90EF90DF90CF90BF90AF90089539
:1030E000CF93C82F6FEF811163E282E290E00E94DC
:1030F0009D336FEFC11169E083E290E00E949D3340
:103100006FEFC11167E084E290E00E949D33CF91A0
:10311000089580E00E94701860E085E290E00E94CF
:103120009D330E9438180E94011881E00E94701897
:1031300008950F931F93CF93DF93843038F5623057
:1031400028F5443018F528E0629F8001112450E0F2
:10315000440F551F040F151F30E1839FC001112438
:10316000080F191FC80186960E948F33C82FD0E020
:10317000DC2FCC27C80187960E948F339E01282B15
:10318000C901DF91CF911F910F91089590E080E0E8
:10319000F8CF462F723040F4643030F4843020F49D
:1031A000672F0E949918089590E080E00895CF92CB
:1031B000DF92FF920F931F93CF93DF936C010091E7
:1031C000760280913402082BC3E0D0E010E0FC2EA0
:1031D000C8010C2E02C0959587950A94E2F780FDF0
:1031E0000CC02197A0F7F12C8F2DDF91CF911F916B
:1031F0000F91FF90DF90CF900895B6018C2F0E9421
:10320000C9180E94EF14019761F3EECFCF93DF93BB
:10321000EC010E94D718BE010E94C9180E94EF1449
:10322000DF91CF910895FC0183819481892B29F04E
:103230008081918189238F3F51F480E00895843FFC
:10324000E1F717C0883EA8F0813FB9F712C080812E
:1032500091810E94061992959F70963099F358F4C7
:10326000925F9F70923048F7803F19F040F7883E98
:1032700020F781E008959A5FF4CF82E290E00E9407
:103280008F33833289F483E290E00E948F33893058
:1032900059F484E290E00E948F3391E0873009F086
:1032A00090E0892F8170089580E0FCCF8091280202
:1032B00090912702892B8093AA019091290299234A
:1032C000A1F0892B8093AA01809117018823E1F155
:1032D0008091E20687FF38C08EE1ECEAF1E090E0F1
:1032E0008150A0F591110E940D1640E250E067E078
:1032F00072E08AEA91E00E948233892B21F180E218
:10330000EAEAF1E0A7E0B2E001900D928A95E1F7D8
:10331000E091D906F091DA063097A9F08091170173
:10332000882359F08091E20687FF07C08091AA01A7
:103330008093AB0186E08093AA010280F381E02DA7
:103340008AEA91E00995089586E0C7CF219122236A
:1033500039F29F5FC5CF882321F00E9413160E9487
:1033600056190895882339F090912802982B90934C
:1033700028020E94561908959091E30692FB222795
:1033800020F9281779F080FB92F99093E306609179
:10339000E2067091E30684E090E00E94BB3382E095
:1033A0000E94C61608951F920F920FB60F92112415
:1033B0002F933F934F935F936F937F938F939F933D
:1033C000AF93BF93EF93FF938091E10082FF09C019
:1033D0008091E20082FF05C08091E1008B7F8093A5
:1033E000E1008091DA0080FF24C08091D80080FF46
:1033F00020C08091DA008E7F8093DA008091D9001E
:1034000080FF9DC080E189BD82E189BD09B400FED5
:10341000FDCF81E0809309078091E406811109C006
:103420000E94D8110E9479128091E20084608093FA
:10343000E2008091E10080FF17C08091E20080FFF0
:1034400013C08091E2008E7F8093E2008091E200C1
:1034500080618093E2008091D80080628093D800E0
:1034600019BC85E0809309078091E10084FF2BC09F
:103470008091E20084FF27C080E189BD82E189BD9F
:1034800089B5982F917080FFFBCF8091D8008F7DF8
:103490008093D8008091E1008F7E8093E10080913D
:1034A000E2008F7E8093E2008091E2008160809351
:1034B000E20080910A07882309F447C084E08093E2
:1034C0000907809109078091E10083FF27C080915F
:1034D000E20083FF23C08091E100877F8093E100B9
:1034E00082E08093090710920A078091E1008E7FA5
:1034F0008093E1008091E2008E7F8093E2008091D2
:10350000E20080618093E20042E060E080E00E949F
:1035100047128091F00088608093F000FF91EF9156
:10352000BF91AF919F918F917F916F915F914F91DB
:103530003F912F910F900FBE0F901F90189519BCBF
:10354000109209071092E40674CF8091E30087FD82
:1035500093E090930907B5CF78941F921FB61F92FE
:1035600011248F939F93AF93BF938091DE06909128
:10357000DF06A091E006B091E1060196A11DB11D04
:103580008093DE069093DF06A093E006B093E106F9
:10359000BF91AF919F918F911F901FBE1F90189563
:1035A0009C014FB7F8948091DE069091DF06A091C0
:1035B000E006B091E1064FBF821B930B08952FB731
:1035C000F8948091DE069091DF06A091E006B0911C
:1035D000E1062FBF08950E94DF1A9C019091CD064D
:1035E0008091CE06982B21F03093CA062093C9060D
:1035F0009091CF068091D006982B21F03093C80689
:103600002093C706E091D906F091DA06309749F089
:1036100082E08093CB060480F581E02D8BEC96E070
:10362000099508951092280280911701ECEAF1E0C3
:103630008823F9F08091E20687FF1BC08EE1DF014D
:103640001D928A95E9F790E080E00E94D61390E001
:1036500080E00E94B113109227020E94561986E062
:10366000EBECF6E0DF011D928A95E9F70E94EB1A78
:10367000089586E0E4CFAAE2B0E0E1E4FBE10C9437
:10368000AB318BE097E02091F100DC012D93CD016F
:10369000B7E083319B07B9F780910C07833009F4B9
:1036A00072C0B8F4813009F449C0823009F4B3C063
:1036B0008091E80083FF8BC280910B0790910C07EB
:1036C0009A3008F084C2E92FF0E0ED52FC4C0C94E3
:1036D00028328A3009F48EC08B3009F471C08930E9
:1036E00039F780910B07813219F780910F0790917C
:1036F0001007009711F00297D9F68091E800877FB4
:103700008093E8008091E80082FF38C09091F30038
:103710008091F200029731F48091F100813011F034
:10372000863021F48091F1008093E6068091E800D4
:103730008B778093E8000E942812BACF80910B0704
:10374000813A09F0B5CF8091E800877F8093E80047
:1037500080910F0790911007892B61F460E287EE4A
:1037600096E070E00E94D4128091E8008B778093FD
:10377000E8009ECF60E090E080E0F3CF8091090701
:103780008111C0CF95CF80910B07813A09F090CF7E
:1037900080910F0790911007892B09F089CF8091B4
:1037A000E800877F8093E8008091E80080FFFCCFED
:1037B000809117018093F1008091E8008E77B9CF56
:1037C00080910B07813209F073CF80910F079091A0
:1037D0001007892B09F06CCF8091E800877F8093D8
:1037E000E8000E94281280910D07809317010E9423
:1037F000121B5ECF80910B07813209F059CF809167
:10380000E800877F8093E8000E94281280910E07CD
:103810008093E5064DCF80910B07813A09F048CFA0
:103820008091E800877F8093E8008091E80080FF26
:10383000FCCF8091E506BECF803899F0823809F040
:10384000C6C180910F078F70873008F0C0C1809388
:10385000E9008091EB0085FB882780F91092E90050
:1038600006C080910707909108079111826090919E
:10387000E800977F9093E8008093F1001092F100A8
:103880008091E8008E779FC1882309F48DC1823032
:1038900009F09DC180910D07811190C180910F07A2
:1038A0008F702FEF280F263008F091C18093E90028
:1038B0002091EB0020FF82C1933031F48091EB0026
:1038C00080628093EB007AC19091EB0090619093BD
:1038D000EB0021E030E001C0220F8A95EAF7209347
:1038E000EA001092EA008091EB008860EACF811133
:1038F0006EC110910D071F778091E3008078812BB6
:103900008093E3008091E800877F8093E8000E9425
:1039100028128091E80080FFFCCF8091E30080684E
:103920008093E30082E0111183E0809309074FC187
:103930008058823008F04BC120910D0730910E075E
:103940002C3DE3E03E07A1F583E08A838AE2898388
:103950004FB7F894DE01139620E03EE051E2E32FEA
:10396000F0E050935700E49120FF03C0E295EF7020
:103970003F5FEF708E2F90E0EA30C0F0C7968D93D6
:103980009D932F5F243159F74FBF8091E800877FC7
:103990008093E8006AE270E0CE0101960E94D412A2
:1039A0008091E8008B778093E80011C1C096E7CF43
:1039B00080910F0790911007432F552743305105F1
:1039C00009F44AC078F54130510509F47AC08BE515
:1039D00090E0E8EDF2E24230510509F0F8C02091A4
:1039E000E800277F2093E80020911107309112070B
:1039F0008217930708F49C0140E02115310509F076
:103A000065C0411163C08091E80082FDC9CF8091FB
:103A10000907882329F2853019F28091E80083FF95
:103A2000F2CFBECF4132510509F43CC042325105BC
:103A300009F0CDC08330910508F0C9C0FC01EE0F3C
:103A4000FF1FE456FE4F0190F081E02D87569E4FF8
:103A5000DC018C9190E01AC0332721303105D1F080
:103A60002115310561F02230310509F0B0C0E5E4DF
:103A7000F3E2E4918E2F90E0E5E4F3E207C0EDE697
:103A8000F3E2E4918E2F90E0EDE6F3E2009709F483
:103A90009EC0A5CFEDE5F3E2E4918E2F90E0EDE539
:103AA000F3E2F4CF8330910508F091C0880F991F9D
:103AB000FC01EE55FE4F0190F081E02D89E090E091
:103AC0008ECF82E190E0E3E3F3E289CF80910907B2
:103AD000882309F465CF853009F462CF8091E8002E
:103AE00083FD5ECF8091E80082FD8DCF8091E8005C
:103AF00080FF83CF9091F3008091F2002115310572
:103B000019F08830910550F041E0089709F040E045
:103B10008091E8008E778093E8006FCF44914093C6
:103B2000F1003196215031090196E8CF803809F033
:103B30004EC08091E800877F8093E80080910A075B
:103B40008093F1009DCE811142C010910D0712307B
:103B5000F0F58091E800877F8093E80010930A07D2
:103B60000E942812112311F084E005C08091E30027
:103B700087FDFACF81E08093090742E061EC81E0A4
:103B80000E94471242E261EC84E00E94471242E246
:103B900061EC82E00E94471242E260EC83E00E9406
:103BA00047128091090713C080910D07813079F485
:103BB00081E0933009F080E0809308071092E900DB
:103BC0008091E800877F8093E8000E94281280910E
:103BD000E80083FF0AC08091E800877F8093E800B7
:103BE0008091EB0080628093EB00AA96E3E00C9456
:103BF000C7311F920F920FB60F9211242F933F934C
:103C00004F935F936F937F938F939F93AF93BF93E4
:103C1000CF93DF93EF93FF93D091E900DF70809112
:103C2000EC00C82FC17080FDC0E81092E9008091BF
:103C3000F000877F8093F00078940E943B1B1092E5
:103C4000E9008091F00088608093F000CD2BCF7068
:103C5000C093E900FF91EF91DF91CF91BF91AF91B8
:103C60009F918F917F916F915F914F913F912F9194
:103C70000F900FBE0F901F9018950E94121B2FEFF0
:103C800084E39CE0215080409040E1F700C00000B8
:103C900088E19AE00FB6F894A895809360000FBE73
:103CA00090936000FFCF662309F4CFC040911601C6
:103CB000242F30E0220F331FF901E05EFE4F908188
:103CC0008D3C09F079C091959093CE0680911601B4
:103CD000481709F46EC090E0880F991FFC01E05E60
:103CE000FE4F2081885E9E4FFC0180819091CD0621
:103CF000191614F42093CD069091CD0697FF04C0B9
:103D0000922F91959093CD069091CE06191614F4AA
:103D10002093CE069091CE0697FF03C02195209365
:103D2000CE069091D006191614F48093D006909187
:103D3000D00697FF04C0982F91959093D00690914C
:103D4000CF06191614F48093CF069091CF0697FFF3
:103D500003C081958093CF063091CD063323B1F017
:103D60002091CE06222391F045EB3403C0011124AB
:103D7000992309F462C09093CD0655EB2503900179
:103D80001124332309F45DC03093CE064091D00650
:103D9000442379F03091CF06332359F025EB4203C9
:103DA000A00111245093D0063203900111243093C6
:103DB000CF060E94EB1A08958E3C09F485CF8F3C04
:103DC00021F491959093CD0681CF803DD9F3285E63
:103DD0003E4FF9019081893D19F49093CF0676CF3B
:103DE0008A3D11F49195F9CF8B3D21F491959093F3
:103DF000D0066CCF8C3DD9F39FE2980F983070F4C9
:103E0000815D990B21E030E001C0220F8A95EAF72D
:103E10008091CC06822B8093CC0658CF8D3D21F427
:103E200081E08093160152CF8E3D11F482E0F9CFEC
:103E30008F3D09F04BCF83E0F4CF81E08093CD0636
:103E40009CCF81E08093CE06A1CF8D3C39F4809148
:103E5000CE0687FFAECF1092CE06ABCF8E3C29F4B4
:103E60008091CE061816BCF3A4CF8F3C39F4809114
:103E7000CD0687FF9ECF1092CD069BCF803D29F4C3
:103E80008091CD061816BCF394CF893D41F4809102
:103E9000CF0618160CF08DCF1092CF068ACF8A3D30
:103EA00029F48091CF0687FF84CFF6CF8B3D39F47C
:103EB0008091D00687FF7DCF1092D0067ACF8C3DBF
:103EC00029F48091D0061816BCF373CF9FE2980FA7
:103ED000983008F06ECF815D990B21E030E0F90158
:103EE00002C0EE0FFF1F8A95E2F7CF0180959091F7
:103EF000CC0689238093CC065CCF882399F19CEF74
:103F0000980F913A40F4682F8AEA91E00E94521388
:103F10000E945619089590E2980F983050F48770D7
:103F200091E001C0990F8A95EAF7892F0E94131634
:103F3000EFCF9BE5980F933028F490E080E00E944B
:103F4000D613089598E5980F9B3128F490E080E00F
:103F50000E94B113089593E3980F933118F460E031
:103F60000E94531E0895CF93C82F8823D9F18CEF58
:103F70008C0F813AC8F580911701882311F1809147
:103F8000E20687FF1EC0EC2FE695E695E695F0E089
:103F9000E655FE4F828190E04C2F477021E030E0E3
:103FA00002C0220F331F4A95E2F782239323892B05
:103FB00091F06C2F8AEA91E00E9452130E945619E8
:103FC0000AC0ECEAF1E082EB91E02191C21789F39B
:103FD0008E179F07D1F76C2F8AEA91E00E947C131D
:103FE0000E945619CF91089580E28C0F883068F4B2
:103FF000C77021E030E001C0220FCA95EAF7809136
:104000002802822B80932802EBCFEBE5EC0FE33004
:1040100040F4F0E0E85DFE4F808190E00E94D6130E
:10402000E1CFE8E5EC0FEB3150F4F0E0EE0FFF1FCD
:10403000E55DFE4F808191810E94B113D3CF83E370
:104040008C0F833178F661E08C2F0E94531ECACF0B
:104050001F93CF93DF93182FD0E0C0E0893311F482
:10406000C0E5D0E0812F0E94B31F209739F4812F43
:104070000E947D1FDF91CF911F9108958FE99FE0EE
:104080000197F1F700C000002197EFCF0F931F9326
:10409000CF93DF93C62FD42F022FFC018281882378
:1040A000A9F0609315070E94DF1A9093140780937C
:1040B0001307C77081E001C0880FCA95EAF70E9414
:1040C000B219DF91CF911F910F910895809115073B
:1040D000681332C080911307909114070E94D01A80
:1040E000883C910548F510E21D0FCD17B9F080E22C
:1040F0008C0F883040F4C77081E001C0880FCA95EA
:10410000EAF70E94AB19183048F481E09D2F9770B0
:1041100001C0880F9A95EAF70E94B219802F0E9479
:104120002820183070F6D77081E001C0880FDA952A
:10413000EAF70E94AB19C5CFC77081E001C0880FB4
:10414000CA95EAF7F6CFA2E0B0E0E9EAF0E20C9413
:104150009E31E1E6F1E030E041E021912F3F09F4AA
:10416000B4C0A22FA295AF70B0E090968C9190E071
:104170002F7002C0959587952A95E2F780FDA5C01E
:10418000842F382B440F21E0E536F20731F73983CD
:10419000E5E6F1E030E041E021912F3F09F497C0DE
:1041A000A22FA295AF70B0E090968C9190E02F7006
:1041B00002C0959587952A95E2F780FD88C0842FE7
:1041C000382B440F51E0E936F50731F73A8342E0E6
:1041D00050E0BE016F5F7F4F82E392E00E94823326
:1041E0008C01892B31F089819A81909333028093DD
:1041F000320210922F02F0902E02FF2009F47CC0B0
:104200000E94DF1A20912C0230912D02DC01A21BAA
:10421000B30B9D0190932D0280932C02AF3FB1050B
:1042200011F008F056C0AB2B09F44BC0E22E1092EF
:104230002E02809130029091310225EC422E26E030
:10424000522E42E352E06C01B8E0CB0ED11C612C3F
:10425000712CAA24A394B12CFC0130E020E07081E1
:104260007723E1F0E716C0F11082D2016C91DA01F8
:104270008C90762F78254501022E01C0880C0A9477
:10428000EAF78722982C9626662D70E06829662426
:104290006394672B09F4612CD2019C9231962F5FB5
:1042A0003F4F24303105D9F60496BFEF4B1A5B0A15
:1042B0004F5F5F4F8C159D0579F670922E026092CC
:1042C0002F020115110511F55EC080E05ACF80E084
:1042D00077CF2FEF30E0AACF7E1970837F2CDECF0F
:1042E0006C9161112FC05C9341E02CC0648161111D
:1042F00042C0548341E03FC00115110509F443C099
:104300000E94DF1A90932D0280932C02E0913002DC
:10431000F0913102209132028091C5062827409108
:104320002E0290E080E030E05AE0DF01A80FB91FD4
:10433000B901082E02C0759567950A94E2F760FDF1
:10434000CFCF1C9201968430910579F740932E02CD
:10435000809133029091C606892730E020E090E0FA
:104360005AE0BC01022E02C0759567950A94E2F7E7
:1043700060FDBCCF14822F5F3F4F31962430310552
:1043800081F740932E0280912F022296E0E10C9457
:10439000BA31A8E0B0E0EFECF1E20C949E318C0170
:1043A000DC0113968D919C911497892B39F08C9197
:1043B00011969C9189238F3F09F006C52896E0E16C
:1043C0000C94BA310E94D718F82E682F89819A81EF
:1043D0000E946B1669817A818F2D0E94C9187C0119
:1043E000F8018281882309F42BC5C7019A958115AC
:1043F0009F4408F077C0C70199279C0124503109D8
:104400002432310518F08B970E9780F4E0913F022B
:10441000F0E0EE0FFF1FEC5BFD4F808191818F3F3D
:104420003FE7930719F0019691838083C70197575F
:104430008038910508F002C58FE08E1508F492C00F
:104440008FEF93E00E948F3381118CC066E6A62E19
:10445000B12CE11051C0FE01339686E0DF011D92C0
:104460008A95E9F75AE0452E7501BFEFEB1AFB0A72
:10447000C5010E948F3389831A82882309F472C090
:10448000813009F082C06501E2E0CE0ED11CC70187
:104490000E948F338A83882309F464C09FEF980FAA
:1044A0009330C0F5F3E0AF0EB11CC6010E948F330C
:1044B0008B83882309F456C01C82DE0111967D018E
:1044C000F7012081222381F2213009F09EC09181E1
:1044D0008281913009F05BC0F2E0EF0EF11C0E9486
:1044E00028205CC090E080E02FEFE216F10411F08C
:1044F00008F083CFC70181CFA11494E0B90691F1F0
:10450000C5010E948F33811101C0EA94AFEFAA1A4E
:10451000BA0A9FCF5601843081F642E0E42EF12C96
:1045200056012FEFA21AB20AC6010E948F33E1E0B2
:10453000F0E0EC0FFD1FEE0DFF1D8083882391F04E
:104540008C3741F4E2E0F0E0EC0FFD1FEE0DFF1DB3
:104550001082B3CF3FEFE31AF30A650187E0E81654
:10456000F104F1F680910602877009F427CFD80193
:1045700012968C91882309F421CF8091E30682FF63
:104580001DCF82E00E94C61619CF570196CF9230F8
:1045900049F422E0E20EF11C0E94B31FEFEFEE1A85
:1045A000FE0A8ECF933031F432E0E30EF11C0E940C
:1045B0007D1FF4CF943021F08FEFE81AF80AEECF88
:1045C00092E0E90EF11C30E020E0B7016F5F7F4F11
:1045D000D70111964C918053990B8A30910550F078
:1045E00021503109D8F2EFE9FFE03197F1F700C02F
:1045F0000000F6CF429EF001439EF00D11249C0175
:104600002E0F3F1F842F7B01E0CFE22FF0E0EC5014
:10461000FE4F5490822F86958695869590E0FC01FA
:10462000EC51FE4F64902770712C022E02C07594DD
:1046300067940A94E2F731E063227724FC01EC529C
:10464000FE4F8490912C022E02C0959487940A9478
:10465000E2F7A1E08A229924FC01EC53FE4FC490BA
:10466000D12C02C0D594C7942A95E2F7B1E0CB22B1
:10467000DD246114710419F081EE0E94B31F8114CE
:10468000910419F086EE0E94B31F852D0E94282008
:104690008114910419F086EE0E947D1F611471044B
:1046A00019F081EE0E947D1FC114D10409F476CF68
:1046B0008CE215CF26E241EE61EEC8010E94462051
:1046C00051CF27E245EE65EEF8CF26E241EE60EEEF
:1046D000F4CF27E245EE64EEF0CF26E241EE62EE43
:1046E000ECCF27E245EE66EEE8CF28E241E0EBCFE3
:1046F000D80112968C91882309F491C31092150762
:10470000C7019057839708F072C384E090E00E943D
:1047100097339093E3068093E206F701E150F04768
:10472000E232F10520F4E352FC4C0C9428328091E3
:10473000E20681608093E20695C08091E30688607E
:104740008093E3068FC08091E2068260F3CF809170
:10475000E2068460EFCF8091E2068860EBCF809123
:10476000E3068160EDCF8091E3068260E9CF80911E
:10477000E2068061DFCF8091E2068062DBCF80912C
:10478000E2068064D7CF0E94121B8091E206806807
:10479000D1CF8091E2068C60CDCF8091E30683601B
:1047A000CFCF8091E2068E7FC5CF8091E306877FD1
:1047B000C7CF8091E2068D7FBDCF8091E2068B7FCF
:1047C000B9CF8091E206877FB5CF8091E3068E7FD7
:1047D000B7CF8091E3068D7FB3CF8091E2068F7EC5
:1047E000A9CF8091E2068F7DA5CF8091E2068F7BD5
:1047F000A1CF0E94121B8091E2068F779BCF809100
:10480000E206837F97CF8091E3068C7F99CF8091DA
:10481000E20682FB992790F921E0922790FB82F92A
:1048200090FB83F987CF8091E306982F9095917044
:104830008E7F892B90FB81F983CF9091E206892F9F
:104840008F7B96FF806476CF0E94121B9091E206C8
:10485000892F97FB87F980586DCF61E08EE090E05B
:104860000E949D336091E2067091E30684E090E03F
:104870000E94BB330E94121B75CE60E0EFCF909177
:10488000E206892F8F7E94FF806154CF9091E206DB
:10489000892F8E7F90FF81604DCF9091E306892F05
:1048A000877F93FF88604CCF81E00E94E216E2C2CE
:1048B000B3E0EB16BCE7FB0609F47DC008F05CC072
:1048C000E114FCE7FF0609F469C021E0E2162CE7D9
:1048D000F20609F476C0F8018281E080F180882335
:1048E00009F47DC0C7010E94D718D82E682FC701D0
:1048F0000E946B16B7018D2D0E94C9180E94EF14FB
:104900007C01882ED8011296DC9012971596BC90E7
:10491000B2943FE0B322809106028770F1F0AD2C93
:10492000DD20E1F08F2D807F803451F080E28E0D0C
:10493000883098F0B11004C08F2D807E803269F0ED
:104940008091E30682FF09C082E00E94C616809132
:1049500006028770AA24A3948111A12C9F2C929403
:104960002FE09222BBE0B91508F4A8C0E92DF0E0D1
:10497000E150FC4C0C9428323BE5E3163CE7F3068F
:1049800061F18CE5E8168CE7F806E9F09AE5E9169E
:104990009CE7F90609F09FCF81E01CC00E94121B22
:1049A000AFEFB4E3ECE0A150B040E040E1F700C06D
:1049B00000000E9435136FEF7FEF90E080E00E94CF
:1049C000BB330E943D1E8091E30682FB882780F95D
:1049D00091E089270E94BC197ECF80E0FBCFC70100
:1049E0000E944416D82E86CFEF2DEF70CE2E8F2D3D
:1049F000807F19F0C29490EFC922DD20B9F0CC205D
:104A000069F080E28E0D883010F0811009C080912D
:104A10002802C82AC09228020E9456198E2D4CC026
:104A200080912702C82AC0922702F6CF8E2D0E94BD
:104A30007D1FCC2009F442C080E28E0D883010F03A
:104A4000811004C08C2D0E94131606C0C094809162
:104A50002702C822C09227020E9456192FC0FF2D9C
:104A6000FF70CF2E8F2D807F803219F0C29480EF9F
:104A7000C822882089F021E0821609F46CC0DD206C
:104A800009F476C0BB2009F46CC0F801858180FF71
:104A9000C5CF8F70858365C02091E30622FD34C0A9
:104AA000DD2061F1CC2039F080912802C82AC09223
:104AB00028020E94561980E00E94B31FA92DA85019
:104AC000BB0B149710F40E94FB13AA2009F476CCB8
:104AD0008091060280FD72CCF80112828595859541
:104AE00085950E94E216C8010E94C92180910602A4
:104AF0008595859585950E94B91660CC80E00E94C9
:104B00007D1FCC20D9F29ECFDD2099F09091290213
:104B10008C2D892BB11003C00E94B219CFCF31E088
:104B2000B312FACF22FFCACF891741F2809329022C
:104B3000C5CFB11006C00E940D168C2D0E94AB1976
:104B4000BDCF81E0B81609F4B9CF8C2D0E94AB1906
:104B50000E940D16B3CFDD2031F095E09B1508F4CF
:104B6000ADCF8C2DD9CFA4E0AB1508F4A7CFE5CFFE
:104B7000BB2019F3F9E38F1209C02FEF37EE83E062
:104B8000215030408040E1F700C000008E2D0E948F
:104B90007D1F94CF8F2D86958695837061F081302F
:104BA00009F08CCFC7019370D11002C080E090E073
:104BB0000E94B11383CFC7019370D11002C080E06F
:104BC00090E00E94D6137ACF6D2D8E2D0E94531E39
:104BD00075CF8F2D837091F5D11070CF4E2D4295EA
:104BE00046954770440F440F8E2D8F70042E01C0E0
:104BF000880F0A94EAF72E2D2071E4FE07C02FE0FB
:104C000030E001C0220F4A95EAF720953F2D3695F6
:104C100036953370323069F050F4409134023130BF
:104C200029F0822B84230E94EE1648CF842B822BFE
:104C3000FACF282B809134028227F5CF8695DD208C
:104C400011F08F2D8170882309F438CF4E2D4295B5
:104C500046954770440F440F8E2D8F70042E01C06F
:104C6000880F0A94EAF72E2D2071E4FE07C02FE08A
:104C700030E001C0220F4A95EAF720953F2D369586
:104C800036953370323069F050F44091760231300D
:104C900029F0822B84230E94961610CF842B822B1E
:104CA000FACF282B809176028227F5CF9F2D9F7017
:104CB000F92EDD2029F0892F0E94E2168E2D2CCFAF
:104CC0008E2D0E94AB198F2D0E94B916F7CE8E2D16
:104CD000A2EF8A16B1F1A81570F0B0EF8B16D1F0E3
:104CE000E1EF8E1691F0DD2009F45EC0B11096CE92
:104CF0008F2D8F712AC0F3EF8F1651F124EF82129E
:104D0000F2CF8091E30682FD2FC08F2D8F71DD20C1
:104D1000D9F21BC0DD2081F034E03B1508F4CECE83
:104D20002F2D2F7181E090E001C0880F2A95EAF7BE
:104D3000909176028927AFCF85E08B1508F4BECE1F
:104D4000EFCF8F2D8F71D110BFCF0E94E216B6CE5C
:104D500080E0DD2009F49FCF9F2D9F7181E001C08D
:104D6000880F9A95EAF797CFDD2099F09F2D9F71D4
:104D7000F92E892F0E94E2168091E30682FF07C078
:104D8000A8E0FA9EC00111248360809306028F2D53
:104D9000DCCF81E00E94C616B1E0BB1508F08ECED4
:104DA00082E00E94C6168ACEBB2059F0893309F0F2
:104DB000EDCEEFEFF7EE23E0E150F0402040E1F7D9
:104DC000E3CE8F2D8F7180CF85E0F801DE01119643
:104DD00001900D928A95E1F7D80112962C91898164
:104DE0009A812111EFCA0E944416F82EF3CAB6E147
:104DF000EB16BCE7FB0609F043C0809128028A7AD3
:104E000091E009F490E09093CA0169E2811165E3B1
:104E10008AEA91E00E947C130E945619A3CBE6E136
:104E2000EE16ECE7FE06B9F48091CA0169E2811141
:104E300065E38AEA91E00E945213EECF0E94DF1AE6
:104E4000F701E851FC47E730F10508F051CCE55F88
:104E5000FB4C0C94283281E0F7E7EF16FCE7FF06E5
:104E600039F082E028E7E2162CE7F20609F033CDAC
:104E70000E94B91643E062E081E00E94991672CB6D
:104E800037E7E3163CE7F30609F40ECD88E7E816AA
:104E90008CE7F80609F00CCD82E007CD1F93CF9385
:104EA000DF938091D301807F09F04BC08091D001C6
:104EB000882309F446C080910502C091D401409135
:104EC000CE015091CF016091D1017091D201D42FC8
:104ED000D52316E0C817A9F190E061157105A9F175
:104EE000DF3F99F1189FF001199FF00D1124DF01A8
:104EF000AB52BE4F11962C911197251326C02C91C1
:104F0000241323C012962C91129721111EC01396C0
:104F10002D913C91261B370B283C3105B0F4809134
:104F2000D3018F7080618093D301E652FE4F808160
:104F30008F70806180838EEC91E00E94C9210E9475
:104F40003A16DF91CF911F91089501968770C2CFD5
:104F5000A1E1B0E0EEEAF7E20C94A2318C0185E029
:104F6000F801DE011D9601900D928A95E1F7F80196
:104F7000E2808EEC882E81E0982E4091D1015091F4
:104F8000D2014115510509F430C19091CE01209113
:104F9000CF01892F82238F3F09F427C1D080C180A0
:104FA000A380B480F090D001B501641B750BFF2085
:104FB00009F4E7C08091D301382F307F683C710538
:104FC00008F0ABC0311178C0FE2C2C1114C09D111B
:104FD00012C0E11010C08F7080618093D301C401B2
:104FE0000E94C9218091D301F80185838F2D61969C
:104FF000ECE00C94BE31A114B104C9F18D2D8C21CB
:105000008F3FA9F181E08E2580FF05C04E2D6C2DCC
:105010008D2D0E941A16A114B10459F18D2D8C21E9
:105020008F3F39F181E08E25F82FF170BF2E80FF80
:1050300039C04E2D6C2D8D2D0E941A16A82E81116F
:1050400031C0DD86CE868D859E850E940619292F6A
:1050500022952F70243078F49F702230A8F0992385
:10506000B9F0F8019581907F99F4FA2CBFCF80E0D8
:10507000CBCF80E0D9CF2A5F2F70223068F0C801F3
:105080000E94C921AB2CF1CF992311F0882369F339
:10509000805E883050F3F3CF803F38F3815F8330F8
:1050A00070F7E3CFEE2009F4A1CF8091D3018160A6
:1050B0008093D301F12C9ACF2C1105C09D1103C010
:1050C000EE2009F477C0C8010E941319882309F162
:1050D000EE20F9F08091D301803270F02091CE0162
:1050E0003091CF0138872F831986BB86AA868C879B
:1050F000CE0107960E94C92186E0F801AEECB1E02E
:1051000001900D928A95E1F70E944E27FF24F394B7
:105110006DCFC8010E94C921F9CF31110AC08EECB0
:1051200091E00E94C92186E0F40111928A95E9F785
:10513000C1CF2C110EC09D110CC0E1100AC0858397
:10514000C8010E94C92186E0F40111928A95E9F70D
:105150004DCFC8010E9413198823D9F2EE20C9F25D
:105160008091D301803240F22091CE013091CF0165
:105170003A8329831B82BD82AC828E83CE01019645
:10518000B9CF683C7105F8F6FE2CEE2011F22C1117
:105190001EC09D111CC08091D30180FD0FC0982FAF
:1051A000907F61F08583903F31F0982F907F905FE2
:1051B0008F70892B8583C8010E94C92186E0F80180
:1051C000AEECB1E001900D928A95E1F70FCFC801E6
:1051D0000E941319811190CF8091D3018160809337
:1051E000D301C8010E94C92101CFEE2009F491CF5B
:1051F000C8010E941319F82E882309F48ACF86E08B
:10520000F801AEECB1E001900D928A95E1F7809142
:10521000CE019091CF010E9406190E944E27E6CE42
:10522000A7E1B0E0E6E1F9E20C94AB314B8B5C8B8B
:105230006D8B7E8B8F8B6111109227021A8A198ACF
:1052400085E0FE017396DE011D9601900D928A9510
:10525000E1F786E0FE013D96DE01179601900D9282
:105260008A95E1F7CE0107960E94A827882359F076
:1052700016E0809105029091D401891343C067968E
:10528000E3E00C94C73186E0FE013796DE0111960B
:1052900001900D928A95E1F78A859B85892B41F3D0
:1052A0008F81988589238F3F19F32091D40130E0B5
:1052B000C901019687709927409105024817190680
:1052C00071F40E94121B1092D4011092050286E024
:1052D000EEECF1E0DF011D928A95E9F7C9CF96E087
:1052E000929FD001939FB00D1124AB52BE4FFE018F
:1052F000319601900D929A95E1F78093D4010E9426
:105300003A16B6CF819FC00111248B529E4F0E9446
:10531000A827882309F4B3CF8091050290E0019675
:105320008770992780930502A4CFA5E0B0E0EBE950
:10533000F9E20C94AA310E94DF1A8C0180912A02B2
:1053400090912B0280179107A1F08FEF89838A83B8
:105350001B820E94DF1A8160782F9D838C83498194
:105360005A816B818D810E94102910932B0200932A
:105370002A022596E4E00C94C6311F921FB61F92B4
:1053800011248F939F93AF93BF938091DD0681117A
:1053900013C08091DE069091DF06A091E006B091E7
:1053A000E1064196A11DB11D8093DE069093DF06B4
:1053B000A093E006B093E106BF91AF919F918F91CA
:1053C0001F901FBE1F901895CDB7DEB7AC970FB6D4
:1053D000F894DEBF0FBECDBF85B7806885BF85B7A7
:1053E000806885BF84B7877F84BF0FB6F894A8957F
:1053F00080916000886180936000109260000FBE11
:1054000080E890E00FB6F89480936100909361007B
:105410000FBE88E094E19093A9018093A8010E94B7
:10542000D8110E9479128091E20084608093E2009A
:105430007894809109078823A1F01091E9001F70EA
:105440009091EC00892F817090FD80E8182B1092CC
:10545000E9008091E80083FD0E943B1B1F701093C0
:10546000E90082E084BD93E095BD9AEF97BD8093FB
:105470006E000E943D19811102C00E94891881E0CE
:105480008093790284988C9A85988D9A8FE891E020
:105490000197F1F700C00000209179024AE752E03D
:1054A000FA018E2F841B821708F4D4C021E631E064
:1054B00069E671E001E010E0D90150E040E08D9133
:1054C0008F3F91F0E82FE295EF70F0E0D1A08F7060
:1054D000780101C0EE0C8A95EAF79E2D90959D21EA
:1054E00091A382A18E2982A34F5F5F4F4430510563
:1054F00031F72C5F3F4F62177307F1F61092C60623
:105500001092C506109233021092320288E090E0A9
:105510000E945732FC019093310280933002108236
:10552000118212821382148215821682178290E0F1
:1055300080E00E949733873E9E4F21F40E943D19E0
:10554000811161C067EE7EEF90E080E00E94BB3386
:1055500060E082E090E00E949D3360E083E090E0B4
:105560000E949D331092340260E074E184E090E088
:105570000E94BB3360E086E090E00E949D336FEFB5
:1055800087E090E00E949D3340E050E0BA0188E05F
:1055900090E00E94AF3360E08DE090E00E949D3388
:1055A00040E050E0BA0188E190E00E94AF3360E053
:1055B00087E190E00E949D3340E050E0BA018CE129
:1055C00090E00E94AF3370E060E080E290E00E94E3
:1055D000BB3340E050E0BA0188E190E00E94AF3375
:1055E00080E00E9470180E94891840E050E0BA01E3
:1055F0008FE090E00E94AF3340E050E0BA0183E1D9
:1056000090E00E94AF3382E090E00E948F3380935D
:10561000350284E090E00E9497339093E3068093F4
:10562000E2060E94A320BFEFE9EFF0E0B150E040B6
:10563000F040E1F700C000000E94A3208091C50661
:1056400080FF13C06FEF7FEF90E080E00E94BB33DC
:105650000E9435138FB1829581707D9904C090E0CE
:10566000892B81931ECF92E0FBCF83E090E00E94D4
:105670008F330E94EE1682E08093BE0680E880930E
:105680007B020E949C306DE070E087E892E00E940F
:105690002717892BE9F58091BE0663E070E081FD54
:1056A00043C284E892E00E942717892B89F56DE0B8
:1056B00070E084E792E00E942717892B49F50E9449
:1056C0004613605A75418F4F9F4F6093D106709378
:1056D000D2068093D3069093D406EEEBF2E080E0FE
:1056E00094E0DF019C011D9221503040E1F7F093DE
:1056F0007D02E0937C028FEF9FEF9093C106809331
:10570000C00681E08093D6068093D5061092BF062E
:1057100086E091E09093DA068093D90604E6802E25
:10572000912CA12CB12C66246394712C80910907D3
:1057300010E102E1853009F445C20E94A320909156
:10574000C50680913602981347C29091C606809193
:105750003702981341C20E9495291EA2209044024C
:1057600030904502032C000C4408550880910E012E
:1057700090E0E4E4F2E021E030E032968217930713
:105780000CF067C28091400290914102A0914202C8
:10579000B09143026FB7F894C090DE06D090DF0658
:1057A000E090E006F090E1066FBFC81AD90AEA0A55
:1057B000FB0A10910E0149ECC416D104E104F10476
:1057C00014F180913F0290E0019669E170E00E943F
:1057D000D33180933F02880F991FFC01EC5BFD4F92
:1057E00011821082812F183108F087E18F5F80933A
:1057F0000E010E9446136093400270934102809311
:1058000042029093430252E02516310441045104B0
:105810000CF42CC2A0E6BAEEA20191010E9435322E
:105820001B012C0188EC189F90011124032E000C01
:10583000440B550B2C0D3D1D4E1D5F1DA5E0B0E02A
:105840000E9435329B01AC01C201B1010E94E731D7
:1058500069017A0191EFC916D104E104F1042CF039
:10586000A0EFCA2ED12CE12CF12C80913B0290911B
:105870003C02A0913D02B0913E022FB7F8942090D7
:10588000DE063090DF064090E0065090E1062FBF24
:10589000281A390A4A0A5B0AA5E62A163104410485
:1058A000510484F00E94461360933B0270933C02C3
:1058B00080933D0290933E0280913A028093390298
:1058C000C092380210913902A0913802A11BBB0B83
:1058D000A20191010E944032A50194010E94093267
:1058E000120F10933A02512CD12C80917902581644
:1058F00008F4C0C1D1100E9446138091D6068823B7
:1059000009F46EC08091C2069091C3060E94D01A1D
:10591000883C910508F444C00091C0061091C1066E
:105920000E94DF1A9093C3068093C2068EEB92E02A
:1059300090937D0280937C020E94DF1A64EB70E0FA
:105940000E948831677070E0762F6627770F770F97
:105950006C567D4FAEEBB2E090E080E0FB01E80FCB
:10596000F91F24913D91231791F0FD013197208378
:105970009C01E6E036952795EA95E1F7F30102C030
:10598000EE0FFF1F2A95E2F79F010E2B132B0196B6
:105990008115F4E09F0711F71093C1060093C0062C
:1059A0008091C0069091C106892B09F0CAC18091EF
:1059B000D5068823A9F00E9446130091D1061091C4
:1059C000D2062091D3063091D406601B710B820B56
:1059D000930B6F3F7F4F8F4F9F4710F40E945117DB
:1059E0004EA1411101C0D1100E946C1786E0EBEC72
:1059F000F6E0DE01119601900D928A95E1F7109282
:105A0000CD061092CE061092CF061092D0068B8152
:105A10009C81892BC1F08091C9069091CA060E9491
:105A2000D01AE0911601F0E0EE0FFF1FEF56FE4F87
:105A3000208131812817390730F48B818093CD067E
:105A40008C818093CE068E819D81892BC1F08091BF
:105A5000C7069091C8060E94D01AE0911601F0E0A6
:105A6000EE0FFF1FE757FE4F2081318128173907BE
:105A700030F48D818093CF068E818093D00646E0EE
:105A800050E0BE016F5F7F4F8BEC96E00E94823347
:105A9000892B61F48091CD069091CE06892B90914F
:105AA000CF06892B9091D006892B11F00E94EB1A1A
:105AB00086E0FE013196ABECB6E001900D928A953E
:105AC000E1F70E94FB139091C406891721F080939F
:105AD000C4060E94461380910907843009F026CE3F
:105AE00083E08093E9008091E80082FF1FCE8091DF
:105AF000E80090E085FF06C00E94F711882309F4B2
:105B0000F8C191E08091E8008B778093E8009923B9
:105B100009F40CCEE981E150E33108F011C2F0E064
:105B2000EE5EFB4C0C94283281E892E0BCCD809173
:105B30000907843031F10E9451171092DD0648E1C7
:105B400050E080E40FB6F894A895409360000FBE33
:105B50008093600083B7817F846083BF83B7816057
:105B600083BF7894889583B78E7F83BF0FB6F894F0
:105B7000A895809160008861809360001092600019
:105B80000FBE809108078823E9F00E94A32080912E
:105B9000C5069091C606892BA9F019BD09BD09B4A7
:105BA00000FEFDCF8091D8008F7D8093D80080913A
:105BB000E00082608093E0008091E00081FDFCCFF6
:105BC0000E94121B80910907853009F4B0CF0E9412
:105BD000121B0E94FB13B1CD15ECE12E16E0F12E45
:105BE00006E312E0312CD701DD907D01F8014190F0
:105BF0008F014D1419F14D24C12C55245394852D3A
:105C00008421A1F0C9A23AA291E0852D8D2109F449
:105C100090E09BA30E94DF1A8160782F9DA38CA344
:105C200049A15AA16BA18DA10E941029C394550CC2
:105C3000F4E0CF12E4CFF8013197D08221E03212A4
:105C400005C00E94461331E03EA388CD332433942F
:105C5000CACF40815181052E000C660B770B240EB4
:105C6000351E461E571E2F5F3F4F87CDC12CD12CAE
:105C70007601FBCD052D10E08FB1829581707D9965
:105C80005CC090E0982BF801E658FD4F8081282FEA
:105C90002370921709F44FC0880F880F892B8083D7
:105CA000E82FEF70F0E0E759FE4F980128583D4F7C
:105CB00079019081D9012C91920F9C9323E1290FB6
:105CC000273218F483708330D1F580E01916B4F4CC
:105CD000F801E958FD4F80818F5F808351100DC01E
:105CE0006091760270E090E080E00E94F11642E060
:105CF00060E00E9499180E94282081E0F7019081BD
:105D000097FF16C0F801E958FD4F808181508083CC
:105D100051100DC06091760270E090E080E00E942A
:105D2000F11640E060E00E9499180E94282081E06E
:105D3000D7011C92D82A5394D8CD92E0A3CF80E00B
:105D4000F9CF8091BF06811132CE0E946C1720914D
:105D5000C0063091C1062115310509F428CE80E036
:105D6000282E312C2301082E02C0440C551C0A9405
:105D7000E2F7A90144215521452B11F48F5FF0CFA3
:105D80009091BE0690FF9CC0880F880F880F80936B
:105D9000110110921401895F8093120187E08093B2
:105DA000150124E630E047E050E06FE071E088E75D
:105DB0000E943C31892B09F0FACD46E0220C331CBD
:105DC0004A95E1F78091BE0680FF8BC0EEE7F2E0D6
:105DD000DF0120E41D922A95E9F741E851E05CA734
:105DE0004BA789E791E098A78FA307E0ABA5BCA5D7
:105DF0004D91BCA7ABA7EFA1F8A58191F8A7EFA3A0
:105E0000820D932D911D9C0122543D4F3AA729A745
:105E1000E42FF0E0E258FD4F90E080E0E02EE81A39
:105E2000162D082E01C0110F0A94EAF749A55AA5AC
:105E300070E0DA016D91AD0161232E2D271B2770D3
:105E4000F22E022E000C330BB62F01C0BB0FFA94BA
:105E5000EAF7FB2E3195219531092770332701C0D0
:105E600066952A95EAF7F62A6081F62AF0827F5F26
:105E70007830F9F6019631968830910579F6EBA5E0
:105E8000FCA5E958F14009F0B1CF04E610E020E4A8
:105E900030E04EE752E060E488E70E945D31892BF4
:105EA00009F085CDC201809590952091C006309172
:105EB000C106822393239093C1068093C00677CDB9
:105EC0008295880F880F8074809311019101369517
:105ED000279520931401815C809312011092150183
:105EE00060CFA10142545D4F04E610E020E430E0B1
:105EF000D2CF00E210E0CE0101967C018091E80053
:105F000085FD0AC08091E8008B778093E8000E94AD
:105F1000F711882399F3F5CD8091F100D7018D9386
:105F20007D010150110951F7ECCD1A828CE08B8371
:105F30001BC08A81823009F4F6C028F4813061F0F8
:105F40008FEF898311C08330C1F08430C9F71B8281
:105F50001C821D821E8208C00E9446130E942E329F
:105F60006B837C838D839E8340E250E0BE016F5F34
:105F70007F4F82E00E949417D9CB2B81822F90E033
:105F8000FE013496245E8230910570F7DC01AB533C
:105F9000B94F3C91319301962813F5CFE5CF8A8113
:105FA000823019F0853001F3CBCF6B817C818D81FC
:105FB0009E810E942E3285E290E00E949D33D4CFD4
:105FC0004C816B818A810E9499189827892798278C
:105FD0009E838D83C9CF2D813E813227232732278F
:105FE0004C816B818A810E941118BECF0E943818A3
:105FF000BBCF80E18A83B8CF83E08A838AE997CFD9
:106000000A811B81102701271027FE0131966F019D
:10601000EC809F012E0D311D7901C8018A599F4FD7
:10602000CE14DF0409F4A0CF0A3933E0130758F483
:106030000E948F33D60114968C930F5F1F4FFFEF92
:10604000CF1ADF0AEACFF6011482F7CF0A811B814B
:106050001027012710279E012F5F3F4F6901EC8019
:10606000E00EF12EF11CC8018A599F4F0E151F0535
:1060700009F47ACF0A3933E0130728F4D6011496CD
:106080006C910E949D33BFEFCB1ADB0A0F5F1F4F4D
:10609000EACF0E94011868CF84E0ACCF0A811B814F
:1060A000102701271027FE0131966F01EC809F0118
:1060B0002E0D311D7901C8018696CE14DF0409F436
:1060C00053CF0034110558F40E948F33D601149633
:1060D0008C930F5F1F4FFFEFCF1ADF0AECCFF60153
:1060E0001482F7CF0A811B811027012710279E01F8
:1060F0002F5F3F4F6901EC80E00EF12EF11CC801CB
:106100008696E016F10609F42FCF0034110528F425
:10611000D60114966C910E949D33BFEFCB1ADB0A17
:106120000F5F1F4FECCF85E290E00E948F331B8200
:106130001C821D828E8318CF1092B9008CE0809350
:10614000B8000895B0E0A0E0E8EAF0E30C94A331D1
:10615000B82EEB010E94DF1A6C01EE24E394F12CBF
:10616000C431D10560F025E0E22EF12CCF3FDC07F1
:1061700031F0CE0164E170E00E9488317B0184EA55
:10618000A82E94E8992E1092BC00A092BC000E9408
:10619000DF1A8C018091BC0087FF0DC08091B9008F
:1061A000887F8830F9F08091B900887F8031D1F004
:1061B0000FEF1FEF08C0C8010E94D01AE816F906B9
:1061C00048F70EEF1FEFCF3FDC07E9F2C6010E9450
:1061D000D01AC817D907B8F6C801CDB7DEB7EBE0BB
:1061E0000C94BF31B092BB009092BC000E94DF1AA9
:1061F0008C018091BC0087FF0AC08091B900887F24
:10620000883111F08034A1F610E000E0E5CFC8013C
:106210000E94D01AE816F90660F7D3CF0F931F93A8
:10622000CF93DF93EB018093BB0084E88093BC00A5
:106230000E94DF1A8C018091BC0087FF11C0209161
:10624000B900287F81E090E0283211F490E080E0EE
:10625000919581959109DF91CF911F910F910895AB
:10626000CF3FDC0741F3C8010E94D01AC817D907F5
:1062700010F78EEF9FEFEFCFB0E0A0E0E2E4F1E3A4
:106280000C94A6316B018A017901B9010E94A230F8
:10629000E6010C0D1D1DC017D10711F097FF08C0B6
:1062A00024E92093BC00CDB7DEB7E8E00C94C231FE
:1062B000B70189910E940E31EECFB0E0A0E0E3E695
:1062C000F1E30C94A631C62F6A017901B8010E944E
:1062D000A23097FD0CC0B8018C2F0E940E31E60150
:1062E000EC0CFD1CCE15DF0511F097FF08C024E96A
:1062F0002093BC00CDB7DEB7E8E00C94C231B80102
:1063000089910E940E31EECF84E98093BC000895FC
:10631000AA1BBB1B51E107C0AA1FBB1FA617B707CB
:1063200010F0A61BB70B881F991F5A95A9F78095E7
:106330009095BC01CD0108952F923F924F925F92AC
:106340006F927F928F929F92AF92BF92CF92DF9285
:10635000EF92FF920F931F93CF93DF93CDB7DEB7EA
:10636000CA1BDB0B0FB6F894DEBF0FBECDBF09947E
:106370002A88398848885F846E847D848C849B84D5
:10638000AA84B984C884DF80EE80FD800C811B81E3
:10639000AA81B981CE0FD11D0FB6F894DEBF0FBE12
:1063A000CDBFED01089597FB072E16F4009407D09A
:1063B00077FD09D00E94883107FC05D03EF4909506
:1063C00081959F4F0895709561957F4F0895A1E243
:1063D0001A2EAA1BBB1BFD010DC0AA1FBB1FEE1F5F
:1063E000FF1FA217B307E407F50720F0A21BB30BAA
:1063F000E40BF50B661F771F881F991F1A9469F726
:1064000060957095809590959B01AC01BD01CF0181
:106410000895052E97FB1EF400940E94203257FD2C
:1064200007D00E94E73107FC03D04EF40C942032D1
:1064300050954095309521953F4F4F4F5F4F0895B0
:1064400090958095709561957F4F8F4F9F4F0895E0
:10645000EE0FFF1F0590F491E02D09946927962710
:10646000692778278727782708950E944832A59FB3
:10647000900DB49F900DA49F800D911D112408953F
